{
  "contractName": "ProductFactory",
  "abi": [
    {
      "anonymous": false,
      "inputs": [
        {
          "indexed": false,
          "internalType": "uint256",
          "name": "id",
          "type": "uint256"
        },
        {
          "indexed": false,
          "internalType": "string",
          "name": "action",
          "type": "string"
        }
      ],
      "name": "AddAction",
      "type": "event"
    },
    {
      "anonymous": false,
      "inputs": [
        {
          "indexed": false,
          "internalType": "uint256",
          "name": "id",
          "type": "uint256"
        },
        {
          "indexed": false,
          "internalType": "string",
          "name": "name",
          "type": "string"
        }
      ],
      "name": "NewProduct",
      "type": "event"
    },
    {
      "inputs": [
        {
          "internalType": "uint256",
          "name": "",
          "type": "uint256"
        }
      ],
      "name": "productToOwner",
      "outputs": [
        {
          "internalType": "address",
          "name": "",
          "type": "address"
        }
      ],
      "stateMutability": "view",
      "type": "function",
      "constant": true
    },
    {
      "inputs": [
        {
          "internalType": "uint256",
          "name": "",
          "type": "uint256"
        }
      ],
      "name": "products",
      "outputs": [
        {
          "internalType": "string",
          "name": "name",
          "type": "string"
        }
      ],
      "stateMutability": "view",
      "type": "function",
      "constant": true
    },
    {
      "inputs": [
        {
          "internalType": "string",
          "name": "_name",
          "type": "string"
        }
      ],
      "name": "createProduct",
      "outputs": [],
      "stateMutability": "nonpayable",
      "type": "function"
    },
    {
      "inputs": [
        {
          "internalType": "string",
          "name": "_action",
          "type": "string"
        },
        {
          "internalType": "uint256",
          "name": "_id",
          "type": "uint256"
        }
      ],
      "name": "addActionToProduct",
      "outputs": [],
      "stateMutability": "nonpayable",
      "type": "function"
    },
    {
      "inputs": [
        {
          "internalType": "uint256",
          "name": "_id",
          "type": "uint256"
        }
      ],
      "name": "getActionFromProduct",
      "outputs": [
        {
          "internalType": "uint256[]",
          "name": "",
          "type": "uint256[]"
        },
        {
          "internalType": "string[]",
          "name": "",
          "type": "string[]"
        }
      ],
      "stateMutability": "view",
      "type": "function",
      "constant": true
    }
  ],
  "bytecode": "0x608060405234801561001057600080fd5b506110b0806100206000396000f3fe608060405234801561001057600080fd5b50600436106100575760003560e01c806302ec06be1461005c578063420fadc8146100785780637acc0b20146100a85780638aa341a0146100d8578063e2849fd9146100f4575b600080fd5b61007660048036038101906100719190610ab4565b610125565b005b610092600480360381019061008d9190610b33565b610304565b60405161009f9190610ba1565b60405180910390f35b6100c260048036038101906100bd9190610b33565b610337565b6040516100cf9190610c44565b60405180910390f35b6100f260048036038101906100ed9190610c66565b6103ed565b005b61010e60048036038101906101099190610b33565b610553565b60405161011c929190610e8c565b60405180910390f35b60608060006040518060600160405280858152602001848152602001838152509080600181540180825580915050600190039060005260206000209060030201600090919091909150600082015181600001908051906020019061018a9291906107a6565b5060208201518160010190805190602001906101a792919061082c565b5060408201518160020190805190602001906101c4929190610879565b505050600060016000805490506101db9190610ef2565b9050336001600083815260200190815260200160002060006101000a81548173ffffffffffffffffffffffffffffffffffffffff021916908373ffffffffffffffffffffffffffffffffffffffff1602179055506102826001600260003373ffffffffffffffffffffffffffffffffffffffff1673ffffffffffffffffffffffffffffffffffffffff1681526020019081526020016000205461077a90919063ffffffff16565b600260003373ffffffffffffffffffffffffffffffffffffffff1673ffffffffffffffffffffffffffffffffffffffff168152602001908152602001600020819055507ff21dbf9e399a0713acf6eda2b3cd910118a9989bd6e58e7c143405fc4ff2121881856040516102f6929190610f35565b60405180910390a150505050565b60016020528060005260406000206000915054906101000a900473ffffffffffffffffffffffffffffffffffffffff1681565b6000818154811061034757600080fd5b906000526020600020906003020160009150905080600001805461036a90610f94565b80601f016020809104026020016040519081016040528092919081815260200182805461039690610f94565b80156103e35780601f106103b8576101008083540402835291602001916103e3565b820191906000526020600020905b8154815290600101906020018083116103c657829003601f168201915b5050505050905081565b806001600082815260200190815260200160002060009054906101000a900473ffffffffffffffffffffffffffffffffffffffff1673ffffffffffffffffffffffffffffffffffffffff163373ffffffffffffffffffffffffffffffffffffffff161461045957600080fd5b600080549050821061046a57600080fd5b6000828154811061047e5761047d610fc6565b5b9060005260206000209060030201600101429080600181540180825580915050600190039060005260206000200160009091909190915055600082815481106104ca576104c9610fc6565b5b9060005260206000209060030201600201839080600181540180825580915050600190039060005260206000200160009091909190915090805190602001906105149291906107a6565b507f13a8a3dd89a9c6ca222dcbddfd9c5834d802451c3fd25d3651309e76e3cee6e78284604051610546929190610f35565b60405180910390a1505050565b606080600080549050831061056757600080fd5b600080848154811061057c5761057b610fc6565b5b90600052602060002090600302016040518060600160405290816000820180546105a590610f94565b80601f01602080910402602001604051908101604052809291908181526020018280546105d190610f94565b801561061e5780601f106105f35761010080835404028352916020019161061e565b820191906000526020600020905b81548152906001019060200180831161060157829003601f168201915b505050505081526020016001820180548060200260200160405190810160405280929190818152602001828054801561067657602002820191906000526020600020905b815481526020019060010190808311610662575b5050505050815260200160028201805480602002602001604051908101604052809291908181526020016000905b828210156107505783829060005260206000200180546106c390610f94565b80601f01602080910402602001604051908101604052809291908181526020018280546106ef90610f94565b801561073c5780601f106107115761010080835404028352916020019161073c565b820191906000526020600020905b81548152906001019060200180831161071f57829003601f168201915b5050505050815260200190600101906106a4565b50505050815250509050600081604001519050600082602001519050808294509450505050915091565b60008082846107899190610ff5565b90508381101561079c5761079b61104b565b5b8091505092915050565b8280546107b290610f94565b90600052602060002090601f0160209004810192826107d4576000855561081b565b82601f106107ed57805160ff191683800117855561081b565b8280016001018555821561081b579182015b8281111561081a5782518255916020019190600101906107ff565b5b50905061082891906108d9565b5090565b828054828255906000526020600020908101928215610868579160200282015b8281111561086757825182559160200191906001019061084c565b5b50905061087591906108d9565b5090565b8280548282559060005260206000209081019282156108c8579160200282015b828111156108c75782518290805190602001906108b79291906107a6565b5091602001919060010190610899565b5b5090506108d591906108f6565b5090565b5b808211156108f25760008160009055506001016108da565b5090565b5b80821115610916576000818161090d919061091a565b506001016108f7565b5090565b50805461092690610f94565b6000825580601f106109385750610957565b601f01602090049060005260206000209081019061095691906108d9565b5b50565b6000604051905090565b600080fd5b600080fd5b600080fd5b600080fd5b6000601f19601f8301169050919050565b7f4e487b7100000000000000000000000000000000000000000000000000000000600052604160045260246000fd5b6109c182610978565b810181811067ffffffffffffffff821117156109e0576109df610989565b5b80604052505050565b60006109f361095a565b90506109ff82826109b8565b919050565b600067ffffffffffffffff821115610a1f57610a1e610989565b5b610a2882610978565b9050602081019050919050565b82818337600083830152505050565b6000610a57610a5284610a04565b6109e9565b905082815260208101848484011115610a7357610a72610973565b5b610a7e848285610a35565b509392505050565b600082601f830112610a9b57610a9a61096e565b5b8135610aab848260208601610a44565b91505092915050565b600060208284031215610aca57610ac9610964565b5b600082013567ffffffffffffffff811115610ae857610ae7610969565b5b610af484828501610a86565b91505092915050565b6000819050919050565b610b1081610afd565b8114610b1b57600080fd5b50565b600081359050610b2d81610b07565b92915050565b600060208284031215610b4957610b48610964565b5b6000610b5784828501610b1e565b91505092915050565b600073ffffffffffffffffffffffffffffffffffffffff82169050919050565b6000610b8b82610b60565b9050919050565b610b9b81610b80565b82525050565b6000602082019050610bb66000830184610b92565b92915050565b600081519050919050565b600082825260208201905092915050565b60005b83811015610bf6578082015181840152602081019050610bdb565b83811115610c05576000848401525b50505050565b6000610c1682610bbc565b610c208185610bc7565b9350610c30818560208601610bd8565b610c3981610978565b840191505092915050565b60006020820190508181036000830152610c5e8184610c0b565b905092915050565b60008060408385031215610c7d57610c7c610964565b5b600083013567ffffffffffffffff811115610c9b57610c9a610969565b5b610ca785828601610a86565b9250506020610cb885828601610b1e565b9150509250929050565b600081519050919050565b600082825260208201905092915050565b6000819050602082019050919050565b610cf781610afd565b82525050565b6000610d098383610cee565b60208301905092915050565b6000602082019050919050565b6000610d2d82610cc2565b610d378185610ccd565b9350610d4283610cde565b8060005b83811015610d73578151610d5a8882610cfd565b9750610d6583610d15565b925050600181019050610d46565b5085935050505092915050565b600081519050919050565b600082825260208201905092915050565b6000819050602082019050919050565b600082825260208201905092915050565b6000610dc882610bbc565b610dd28185610dac565b9350610de2818560208601610bd8565b610deb81610978565b840191505092915050565b6000610e028383610dbd565b905092915050565b6000602082019050919050565b6000610e2282610d80565b610e2c8185610d8b565b935083602082028501610e3e85610d9c565b8060005b85811015610e7a5784840389528151610e5b8582610df6565b9450610e6683610e0a565b925060208a01995050600181019050610e42565b50829750879550505050505092915050565b60006040820190508181036000830152610ea68185610d22565b90508181036020830152610eba8184610e17565b90509392505050565b7f4e487b7100000000000000000000000000000000000000000000000000000000600052601160045260246000fd5b6000610efd82610afd565b9150610f0883610afd565b925082821015610f1b57610f1a610ec3565b5b828203905092915050565b610f2f81610afd565b82525050565b6000604082019050610f4a6000830185610f26565b8181036020830152610f5c8184610c0b565b90509392505050565b7f4e487b7100000000000000000000000000000000000000000000000000000000600052602260045260246000fd5b60006002820490506001821680610fac57607f821691505b60208210811415610fc057610fbf610f65565b5b50919050565b7f4e487b7100000000000000000000000000000000000000000000000000000000600052603260045260246000fd5b600061100082610afd565b915061100b83610afd565b9250827fffffffffffffffffffffffffffffffffffffffffffffffffffffffffffffffff038211156110405761103f610ec3565b5b828201905092915050565b7f4e487b7100000000000000000000000000000000000000000000000000000000600052600160045260246000fdfea26469706673582212207461a7ad2cfdeb8f38aee8b364e5e6e426186b2b9b819eb4492ee78b0d18526064736f6c634300080a0033",
  "immutableReferences": {},
  "source": "// SPDX-License-Identifier: MIT\r\npragma solidity >=0.4.22 <0.9.0;\r\npragma experimental ABIEncoderV2;\r\n\r\nimport \"./SafeMath.sol\";\r\n\r\ncontract ProductFactory {\r\n    event NewProduct(uint256 id, string name);\r\n\r\n    event AddAction(uint256 id, string action);\r\n\r\n    using SafeMath for uint256;\r\n    using SafeMath16 for uint16;\r\n    using SafeMath32 for uint32;\r\n\r\n    struct Product {\r\n        string name;\r\n        uint256[] times;\r\n        string[] actions;\r\n    }\r\n\r\n    // Product list of a farmer\r\n    Product[] public products;\r\n\r\n    mapping(uint256 => address) public productToOwner;\r\n    mapping(address => uint256) ownerProductCount;\r\n\r\n    function createProduct(string memory _name) public{\r\n        uint256[] memory times;\r\n        string[] memory actions;\r\n        products.push(Product(_name, times, actions));\r\n        uint256 id = products.length - 1;\r\n        productToOwner[id] = msg.sender;\r\n        ownerProductCount[msg.sender] = ownerProductCount[msg.sender].add(1);\r\n        emit NewProduct(id, _name);\r\n    }\r\n\r\n    modifier onlyOwnerOf(uint256 _id) {\r\n        require(msg.sender == productToOwner[_id]);\r\n        _;\r\n    }\r\n\r\n    function addActionToProduct(string memory _action, uint256 _id)\r\n        public\r\n        onlyOwnerOf(_id)\r\n    {\r\n        require(_id < products.length);\r\n        products[_id].times.push(uint256(block.timestamp));\r\n        products[_id].actions.push(_action);\r\n        emit AddAction(_id, _action);\r\n    }\r\n\r\n    function getActionFromProduct(uint256 _id)\r\n        public\r\n        view\r\n        returns (uint256[] memory, string[] memory)\r\n    {\r\n        require(_id < products.length);\r\n        Product memory p = products[_id];\r\n\r\n        string[] memory actions = p.actions;\r\n        uint256[] memory times = p.times;\r\n        return (times, actions);\r\n    }\r\n}\r\n",
  "sourcePath": "D:\\HUST\\BKChain\\Training\\Src\\Web3py\\contracts\\ProductFactory.sol",
  "compiler": {
    "name": "solc",
    "version": "0.8.10+commit.fc410830.Emscripten.clang"
  },
  "schemaVersion": "3.4.4",
  "updatedAt": "2022-01-07T10:06:04.872Z",
  "networkType": "ethereum",
  "devdoc": {
    "kind": "dev",
    "methods": {},
    "version": 1
  },
  "userdoc": {
    "kind": "user",
    "methods": {},
    "version": 1
  }
}