{
  "contractName": "ProductFactory",
  "abi": [
    {
      "anonymous": false,
      "inputs": [
        {
          "indexed": false,
          "internalType": "uint256",
          "name": "id",
          "type": "uint256"
        },
        {
          "indexed": false,
          "internalType": "string",
          "name": "action",
          "type": "string"
        }
      ],
      "name": "AddAction",
      "type": "event"
    },
    {
      "anonymous": false,
      "inputs": [
        {
          "indexed": false,
          "internalType": "uint256",
          "name": "id",
          "type": "uint256"
        },
        {
          "indexed": false,
          "internalType": "string",
          "name": "name",
          "type": "string"
        }
      ],
      "name": "NewProduct",
      "type": "event"
    },
    {
      "inputs": [
        {
          "internalType": "uint256",
          "name": "",
          "type": "uint256"
        }
      ],
      "name": "productToOwner",
      "outputs": [
        {
          "internalType": "address",
          "name": "",
          "type": "address"
        }
      ],
      "stateMutability": "view",
      "type": "function",
      "constant": true
    },
    {
      "inputs": [
        {
          "internalType": "uint256",
          "name": "",
          "type": "uint256"
        }
      ],
      "name": "products",
      "outputs": [
        {
          "internalType": "string",
          "name": "name",
          "type": "string"
        }
      ],
      "stateMutability": "view",
      "type": "function",
      "constant": true
    },
    {
      "inputs": [
        {
          "internalType": "string",
          "name": "_name",
          "type": "string"
        }
      ],
      "name": "createProduct",
      "outputs": [],
      "stateMutability": "nonpayable",
      "type": "function"
    },
    {
      "inputs": [
        {
          "internalType": "string",
          "name": "_action",
          "type": "string"
        },
        {
          "internalType": "uint256",
          "name": "_id",
          "type": "uint256"
        }
      ],
      "name": "addActionToProduct",
      "outputs": [],
      "stateMutability": "nonpayable",
      "type": "function"
    },
    {
      "inputs": [
        {
          "internalType": "uint256",
          "name": "_id",
          "type": "uint256"
        }
      ],
      "name": "getActionFromProduct",
      "outputs": [
        {
          "internalType": "uint256[]",
          "name": "",
          "type": "uint256[]"
        },
        {
          "internalType": "string[]",
          "name": "",
          "type": "string[]"
        }
      ],
      "stateMutability": "view",
      "type": "function",
      "constant": true
    },
    {
      "inputs": [
        {
          "internalType": "address",
          "name": "_owner",
          "type": "address"
        }
      ],
      "name": "getProductsByOwner",
      "outputs": [
        {
          "internalType": "uint256[]",
          "name": "",
          "type": "uint256[]"
        },
        {
          "internalType": "string[]",
          "name": "",
          "type": "string[]"
        }
      ],
      "stateMutability": "view",
      "type": "function",
      "constant": true
    }
  ],
  "bytecode": "0x608060405234801561001057600080fd5b50611443806100206000396000f3fe608060405234801561001057600080fd5b50600436106100625760003560e01c806302ec06be146100675780630fecef4814610083578063420fadc8146100b45780637acc0b20146100e45780638aa341a014610114578063e2849fd914610130575b600080fd5b610081600480360381019061007c9190610da5565b610161565b005b61009d60048036038101906100989190610e4c565b610340565b6040516100ab92919061108b565b60405180910390f35b6100ce60048036038101906100c991906110ee565b6105f5565b6040516100db919061112a565b60405180910390f35b6100fe60048036038101906100f991906110ee565b610628565b60405161010b919061118f565b60405180910390f35b61012e600480360381019061012991906111b1565b6106de565b005b61014a600480360381019061014591906110ee565b610844565b60405161015892919061108b565b60405180910390f35b6060806000604051806060016040528085815260200184815260200183815250908060018154018082558091505060019003906000526020600020906003020160009091909190915060008201518160000190805190602001906101c6929190610a97565b5060208201518160010190805190602001906101e3929190610b1d565b506040820151816002019080519060200190610200929190610b6a565b50505060006001600080549050610217919061123c565b9050336001600083815260200190815260200160002060006101000a81548173ffffffffffffffffffffffffffffffffffffffff021916908373ffffffffffffffffffffffffffffffffffffffff1602179055506102be6001600260003373ffffffffffffffffffffffffffffffffffffffff1673ffffffffffffffffffffffffffffffffffffffff16815260200190815260200160002054610a6b90919063ffffffff16565b600260003373ffffffffffffffffffffffffffffffffffffffff1673ffffffffffffffffffffffffffffffffffffffff168152602001908152602001600020819055507ff21dbf9e399a0713acf6eda2b3cd910118a9989bd6e58e7c143405fc4ff21218818560405161033292919061127f565b60405180910390a150505050565b6060806000600260008573ffffffffffffffffffffffffffffffffffffffff1673ffffffffffffffffffffffffffffffffffffffff1681526020019081526020016000205467ffffffffffffffff81111561039e5761039d610c7a565b5b6040519080825280602002602001820160405280156103cc5781602001602082028036833780820191505090505b5090506000600260008673ffffffffffffffffffffffffffffffffffffffff1673ffffffffffffffffffffffffffffffffffffffff1681526020019081526020016000205467ffffffffffffffff81111561042a57610429610c7a565b5b60405190808252806020026020018201604052801561045d57816020015b60608152602001906001900390816104485790505b5090506000805b6000805490508110156105e6578673ffffffffffffffffffffffffffffffffffffffff166001600083815260200190815260200160002060009054906101000a900473ffffffffffffffffffffffffffffffffffffffff1673ffffffffffffffffffffffffffffffffffffffff1614156105d357808483815181106104ec576104eb6112af565b5b6020026020010181815250506000818154811061050c5761050b6112af565b5b906000526020600020906003020160000180546105289061130d565b80601f01602080910402602001604051908101604052809291908181526020018280546105549061130d565b80156105a15780601f10610576576101008083540402835291602001916105a1565b820191906000526020600020905b81548152906001019060200180831161058457829003601f168201915b50505050508383815181106105b9576105b86112af565b5b602002602001018190525081806105cf9061133f565b9250505b80806105de9061133f565b915050610464565b50828294509450505050915091565b60016020528060005260406000206000915054906101000a900473ffffffffffffffffffffffffffffffffffffffff1681565b6000818154811061063857600080fd5b906000526020600020906003020160009150905080600001805461065b9061130d565b80601f01602080910402602001604051908101604052809291908181526020018280546106879061130d565b80156106d45780601f106106a9576101008083540402835291602001916106d4565b820191906000526020600020905b8154815290600101906020018083116106b757829003601f168201915b5050505050905081565b806001600082815260200190815260200160002060009054906101000a900473ffffffffffffffffffffffffffffffffffffffff1673ffffffffffffffffffffffffffffffffffffffff163373ffffffffffffffffffffffffffffffffffffffff161461074a57600080fd5b600080549050821061075b57600080fd5b6000828154811061076f5761076e6112af565b5b9060005260206000209060030201600101429080600181540180825580915050600190039060005260206000200160009091909190915055600082815481106107bb576107ba6112af565b5b906000526020600020906003020160020183908060018154018082558091505060019003906000526020600020016000909190919091509080519060200190610805929190610a97565b507f13a8a3dd89a9c6ca222dcbddfd9c5834d802451c3fd25d3651309e76e3cee6e7828460405161083792919061127f565b60405180910390a1505050565b606080600080549050831061085857600080fd5b600080848154811061086d5761086c6112af565b5b90600052602060002090600302016040518060600160405290816000820180546108969061130d565b80601f01602080910402602001604051908101604052809291908181526020018280546108c29061130d565b801561090f5780601f106108e45761010080835404028352916020019161090f565b820191906000526020600020905b8154815290600101906020018083116108f257829003601f168201915b505050505081526020016001820180548060200260200160405190810160405280929190818152602001828054801561096757602002820191906000526020600020905b815481526020019060010190808311610953575b5050505050815260200160028201805480602002602001604051908101604052809291908181526020016000905b82821015610a415783829060005260206000200180546109b49061130d565b80601f01602080910402602001604051908101604052809291908181526020018280546109e09061130d565b8015610a2d5780601f10610a0257610100808354040283529160200191610a2d565b820191906000526020600020905b815481529060010190602001808311610a1057829003601f168201915b505050505081526020019060010190610995565b50505050815250509050600081604001519050600082602001519050808294509450505050915091565b6000808284610a7a9190611388565b905083811015610a8d57610a8c6113de565b5b8091505092915050565b828054610aa39061130d565b90600052602060002090601f016020900481019282610ac55760008555610b0c565b82601f10610ade57805160ff1916838001178555610b0c565b82800160010185558215610b0c579182015b82811115610b0b578251825591602001919060010190610af0565b5b509050610b199190610bca565b5090565b828054828255906000526020600020908101928215610b59579160200282015b82811115610b58578251825591602001919060010190610b3d565b5b509050610b669190610bca565b5090565b828054828255906000526020600020908101928215610bb9579160200282015b82811115610bb8578251829080519060200190610ba8929190610a97565b5091602001919060010190610b8a565b5b509050610bc69190610be7565b5090565b5b80821115610be3576000816000905550600101610bcb565b5090565b5b80821115610c075760008181610bfe9190610c0b565b50600101610be8565b5090565b508054610c179061130d565b6000825580601f10610c295750610c48565b601f016020900490600052602060002090810190610c479190610bca565b5b50565b6000604051905090565b600080fd5b600080fd5b600080fd5b600080fd5b6000601f19601f8301169050919050565b7f4e487b7100000000000000000000000000000000000000000000000000000000600052604160045260246000fd5b610cb282610c69565b810181811067ffffffffffffffff82111715610cd157610cd0610c7a565b5b80604052505050565b6000610ce4610c4b565b9050610cf08282610ca9565b919050565b600067ffffffffffffffff821115610d1057610d0f610c7a565b5b610d1982610c69565b9050602081019050919050565b82818337600083830152505050565b6000610d48610d4384610cf5565b610cda565b905082815260208101848484011115610d6457610d63610c64565b5b610d6f848285610d26565b509392505050565b600082601f830112610d8c57610d8b610c5f565b5b8135610d9c848260208601610d35565b91505092915050565b600060208284031215610dbb57610dba610c55565b5b600082013567ffffffffffffffff811115610dd957610dd8610c5a565b5b610de584828501610d77565b91505092915050565b600073ffffffffffffffffffffffffffffffffffffffff82169050919050565b6000610e1982610dee565b9050919050565b610e2981610e0e565b8114610e3457600080fd5b50565b600081359050610e4681610e20565b92915050565b600060208284031215610e6257610e61610c55565b5b6000610e7084828501610e37565b91505092915050565b600081519050919050565b600082825260208201905092915050565b6000819050602082019050919050565b6000819050919050565b610eb881610ea5565b82525050565b6000610eca8383610eaf565b60208301905092915050565b6000602082019050919050565b6000610eee82610e79565b610ef88185610e84565b9350610f0383610e95565b8060005b83811015610f34578151610f1b8882610ebe565b9750610f2683610ed6565b925050600181019050610f07565b5085935050505092915050565b600081519050919050565b600082825260208201905092915050565b6000819050602082019050919050565b600081519050919050565b600082825260208201905092915050565b60005b83811015610fa7578082015181840152602081019050610f8c565b83811115610fb6576000848401525b50505050565b6000610fc782610f6d565b610fd18185610f78565b9350610fe1818560208601610f89565b610fea81610c69565b840191505092915050565b60006110018383610fbc565b905092915050565b6000602082019050919050565b600061102182610f41565b61102b8185610f4c565b93508360208202850161103d85610f5d565b8060005b85811015611079578484038952815161105a8582610ff5565b945061106583611009565b925060208a01995050600181019050611041565b50829750879550505050505092915050565b600060408201905081810360008301526110a58185610ee3565b905081810360208301526110b98184611016565b90509392505050565b6110cb81610ea5565b81146110d657600080fd5b50565b6000813590506110e8816110c2565b92915050565b60006020828403121561110457611103610c55565b5b6000611112848285016110d9565b91505092915050565b61112481610e0e565b82525050565b600060208201905061113f600083018461111b565b92915050565b600082825260208201905092915050565b600061116182610f6d565b61116b8185611145565b935061117b818560208601610f89565b61118481610c69565b840191505092915050565b600060208201905081810360008301526111a98184611156565b905092915050565b600080604083850312156111c8576111c7610c55565b5b600083013567ffffffffffffffff8111156111e6576111e5610c5a565b5b6111f285828601610d77565b9250506020611203858286016110d9565b9150509250929050565b7f4e487b7100000000000000000000000000000000000000000000000000000000600052601160045260246000fd5b600061124782610ea5565b915061125283610ea5565b9250828210156112655761126461120d565b5b828203905092915050565b61127981610ea5565b82525050565b60006040820190506112946000830185611270565b81810360208301526112a68184611156565b90509392505050565b7f4e487b7100000000000000000000000000000000000000000000000000000000600052603260045260246000fd5b7f4e487b7100000000000000000000000000000000000000000000000000000000600052602260045260246000fd5b6000600282049050600182168061132557607f821691505b60208210811415611339576113386112de565b5b50919050565b600061134a82610ea5565b91507fffffffffffffffffffffffffffffffffffffffffffffffffffffffffffffffff82141561137d5761137c61120d565b5b600182019050919050565b600061139382610ea5565b915061139e83610ea5565b9250827fffffffffffffffffffffffffffffffffffffffffffffffffffffffffffffffff038211156113d3576113d261120d565b5b828201905092915050565b7f4e487b7100000000000000000000000000000000000000000000000000000000600052600160045260246000fdfea2646970667358221220f80679e0ad0c2b67386058da6478d4c51b5f0ac82c33b04d82652ffcd2f108bd64736f6c634300080a0033",
  "immutableReferences": {},
  "source": "// SPDX-License-Identifier: MIT\r\npragma solidity >=0.4.22 <0.9.0;\r\npragma experimental ABIEncoderV2;\r\n\r\nimport \"./SafeMath.sol\";\r\n\r\ncontract ProductFactory {\r\n    event NewProduct(uint256 id, string name);\r\n\r\n    event AddAction(uint256 id, string action);\r\n\r\n    using SafeMath for uint256;\r\n    using SafeMath16 for uint16;\r\n    using SafeMath32 for uint32;\r\n\r\n    struct Product {\r\n        string name;\r\n        uint256[] times;\r\n        string[] actions;\r\n    }\r\n\r\n    // Product list of a farmer\r\n    Product[] public products;\r\n\r\n    mapping(uint256 => address) public productToOwner;\r\n    mapping(address => uint256) ownerProductCount;\r\n\r\n    function createProduct(string memory _name) public{\r\n        uint256[] memory times;\r\n        string[] memory actions;\r\n        products.push(Product(_name, times, actions));\r\n        uint256 id = products.length - 1;\r\n        productToOwner[id] = msg.sender;\r\n        ownerProductCount[msg.sender] = ownerProductCount[msg.sender].add(1);\r\n        emit NewProduct(id, _name);\r\n    }\r\n\r\n    modifier onlyOwnerOf(uint256 _id) {\r\n        require(msg.sender == productToOwner[_id]);\r\n        _;\r\n    }\r\n\r\n    function addActionToProduct(string memory _action, uint256 _id)\r\n        public\r\n        onlyOwnerOf(_id)\r\n    {\r\n        require(_id < products.length);\r\n        products[_id].times.push(uint256(block.timestamp));\r\n        products[_id].actions.push(_action);\r\n        emit AddAction(_id, _action);\r\n    }\r\n\r\n    function getActionFromProduct(uint256 _id)\r\n        public\r\n        view\r\n        returns (uint256[] memory, string[] memory)\r\n    {\r\n        require(_id < products.length);\r\n        Product memory p = products[_id];\r\n\r\n        string[] memory actions = p.actions;\r\n        uint256[] memory times = p.times;\r\n        return (times, actions);\r\n    }\r\n\r\n    function getProductsByOwner(address _owner) external view returns(uint[] memory, string[] memory) {\r\n        uint[] memory result = new uint[](ownerProductCount[_owner]);\r\n        string[] memory names = new string[](ownerProductCount[_owner]);\r\n        uint counter = 0;\r\n        for (uint i = 0; i < products.length; i++) {\r\n            if (productToOwner[i] == _owner) {\r\n                result[counter] = i;\r\n                names[counter] = products[i].name; \r\n                counter++;\r\n            }\r\n        }\r\n        return (result, names);\r\n    }\r\n}\r\n",
  "sourcePath": "D:\\HUST\\BKChain\\Training\\Src\\Web3py\\contracts\\ProductFactory.sol",
  "compiler": {
    "name": "solc",
    "version": "0.8.10+commit.fc410830.Emscripten.clang"
  },
  "schemaVersion": "3.4.4",
  "updatedAt": "2022-01-08T15:52:29.831Z",
  "networkType": "ethereum",
  "devdoc": {
    "kind": "dev",
    "methods": {},
    "version": 1
  },
  "userdoc": {
    "kind": "user",
    "methods": {},
    "version": 1
  }
}